{
  "contractName": "Faucet",
  "abi": [
    {
      "inputs": [],
      "name": "numOfFunders",
      "outputs": [
        {
          "internalType": "uint256",
          "name": "",
          "type": "uint256"
        }
      ],
      "stateMutability": "view",
      "type": "function",
      "constant": true
    },
    {
      "inputs": [],
      "name": "owner",
      "outputs": [
        {
          "internalType": "address",
          "name": "",
          "type": "address"
        }
      ],
      "stateMutability": "view",
      "type": "function",
      "constant": true
    },
    {
      "stateMutability": "payable",
      "type": "receive",
      "payable": true
    },
    {
      "inputs": [],
      "name": "addFunds",
      "outputs": [],
      "stateMutability": "payable",
      "type": "function",
      "payable": true
    },
    {
      "inputs": [
        {
          "internalType": "uint256",
          "name": "withdrawAmount",
          "type": "uint256"
        }
      ],
      "name": "withdraw",
      "outputs": [],
      "stateMutability": "nonpayable",
      "type": "function"
    },
    {
      "inputs": [],
      "name": "getAllFunders",
      "outputs": [
        {
          "internalType": "address[]",
          "name": "",
          "type": "address[]"
        }
      ],
      "stateMutability": "view",
      "type": "function",
      "constant": true
    },
    {
      "inputs": [
        {
          "internalType": "uint8",
          "name": "index",
          "type": "uint8"
        }
      ],
      "name": "getFunderAtIndex",
      "outputs": [
        {
          "internalType": "address",
          "name": "",
          "type": "address"
        }
      ],
      "stateMutability": "view",
      "type": "function",
      "constant": true
    }
  ],
  "bytecode": "0x608060405234801561001057600080fd5b50336000806101000a81548173ffffffffffffffffffffffffffffffffffffffff021916908373ffffffffffffffffffffffffffffffffffffffff160217905550610829806100606000396000f3fe6080604052600436106100595760003560e01c80630a93cf33146100655780632e1a7d4d146100a25780636fbbb55d146100cb5780638da5cb5b146100f6578063a26759cb14610121578063af7f2c9b1461012b57610060565b3661006057005b600080fd5b34801561007157600080fd5b5061008c60048036038101906100879190610510565b610156565b6040516100999190610642565b60405180910390f35b3480156100ae57600080fd5b506100c960048036038101906100c491906104e7565b610196565b005b3480156100d757600080fd5b506100e061022d565b6040516100ed919061065d565b60405180910390f35b34801561010257600080fd5b5061010b610373565b6040516101189190610642565b60405180910390f35b610129610397565b005b34801561013757600080fd5b506101406104b7565b60405161014d919061069f565b60405180910390f35b6000600360008360ff16815260200190815260200160002060009054906101000a900473ffffffffffffffffffffffffffffffffffffffff169050919050565b8067016345785d8a00008111156101e2576040517f08c379a00000000000000000000000000000000000000000000000000000000081526004016101d99061067f565b60405180910390fd5b3373ffffffffffffffffffffffffffffffffffffffff166108fc839081150290604051600060405180830381858888f19350505050158015610228573d6000803e3d6000fd5b505050565b6060600060015467ffffffffffffffff811115610273577f4e487b7100000000000000000000000000000000000000000000000000000000600052604160045260246000fd5b6040519080825280602002602001820160405280156102a15781602001602082028036833780820191505090505b50905060005b60015481101561036b576003600082815260200190815260200160002060009054906101000a900473ffffffffffffffffffffffffffffffffffffffff1682828151811061031e577f4e487b7100000000000000000000000000000000000000000000000000000000600052603260045260246000fd5b602002602001019073ffffffffffffffffffffffffffffffffffffffff16908173ffffffffffffffffffffffffffffffffffffffff168152505080806103639061074d565b9150506102a7565b508091505090565b60008054906101000a900473ffffffffffffffffffffffffffffffffffffffff1681565b6000339050600260008273ffffffffffffffffffffffffffffffffffffffff1673ffffffffffffffffffffffffffffffffffffffff16815260200190815260200160002060009054906101000a900460ff166104b4576000600160008154809291906104029061074d565b9190505590506001600260008473ffffffffffffffffffffffffffffffffffffffff1673ffffffffffffffffffffffffffffffffffffffff16815260200190815260200160002060006101000a81548160ff021916908315150217905550816003600083815260200190815260200160002060006101000a81548173ffffffffffffffffffffffffffffffffffffffff021916908373ffffffffffffffffffffffffffffffffffffffff160217905550505b50565b60015481565b6000813590506104cc816107c5565b92915050565b6000813590506104e1816107dc565b92915050565b6000602082840312156104f957600080fd5b6000610507848285016104bd565b91505092915050565b60006020828403121561052257600080fd5b6000610530848285016104d2565b91505092915050565b60006105458383610551565b60208301905092915050565b61055a81610704565b82525050565b61056981610704565b82525050565b600061057a826106ca565b61058481856106e2565b935061058f836106ba565b8060005b838110156105c05781516105a78882610539565b97506105b2836106d5565b925050600181019050610593565b5085935050505092915050565b60006105da6023836106f3565b91507f43616e6e6f74207769746864726177206d6f7265207468616e20302e3120657460008301527f68657200000000000000000000000000000000000000000000000000000000006020830152604082019050919050565b61063c81610736565b82525050565b60006020820190506106576000830184610560565b92915050565b60006020820190508181036000830152610677818461056f565b905092915050565b60006020820190508181036000830152610698816105cd565b9050919050565b60006020820190506106b46000830184610633565b92915050565b6000819050602082019050919050565b600081519050919050565b6000602082019050919050565b600082825260208201905092915050565b600082825260208201905092915050565b600061070f82610716565b9050919050565b600073ffffffffffffffffffffffffffffffffffffffff82169050919050565b6000819050919050565b600060ff82169050919050565b600061075882610736565b91507fffffffffffffffffffffffffffffffffffffffffffffffffffffffffffffffff82141561078b5761078a610796565b5b600182019050919050565b7f4e487b7100000000000000000000000000000000000000000000000000000000600052601160045260246000fd5b6107ce81610736565b81146107d957600080fd5b50565b6107e581610740565b81146107f057600080fd5b5056fea2646970667358221220b824bc3c4be5d5e3317df98c0db7af85dec56ed19628863fa614700a10ae340764736f6c63430008000033",
  "immutableReferences": {},
  "source": "pragma solidity >=0.4.22 <0.9.0;\nimport \"./Owned.sol\";\nimport \"./IFaucet.sol\";\n\ncontract Faucet is Owned, IFaucet {\n  uint public numOfFunders;\n\n  mapping(address => bool) private funders;\n  mapping(uint => address) private lutFunders;\n\n  modifier limitWithdraw(uint withdrawAmount) {\n    require(\n      withdrawAmount <= 100000000000000000,\n      \"Cannot withdraw more than 0.1 ether\"\n    );\n    _;\n  }\n\n\n  function addFunds() override external payable {\n    address funder = msg.sender;\n\n    if (!funders[funder]) {\n      uint index = numOfFunders++;\n      funders[funder] = true;\n      lutFunders[index] = funder;\n    }\n  }\n\n  function withdraw(uint withdrawAmount) override external limitWithdraw(withdrawAmount) {\n    payable(msg.sender).transfer(withdrawAmount);\n  }\n\n  function getAllFunders() external view returns (address[] memory) {\n    address[] memory _funders = new address[](numOfFunders);\n\n    for (uint i = 0; i < numOfFunders; i++) {\n      _funders[i] = lutFunders[i];\n    }\n\n    return _funders;\n  }\n\n  function getFunderAtIndex(uint8 index) external view returns(address) {\n    return lutFunders[index];\n  }\n\n  receive() external payable {}\n}",
  "sourcePath": "/home/schizo/faucets/contracts/Faucet.sol",
  "compiler": {
    "name": "solc",
    "version": "0.8.0+commit.c7dfd78e.Emscripten.clang"
  },
  "schemaVersion": "3.4.16",
  "updatedAt": "2023-11-15T17:31:26.010Z",
  "networkType": "ethereum",
  "devdoc": {
    "kind": "dev",
    "methods": {},
    "version": 1
  },
  "userdoc": {
    "kind": "user",
    "methods": {},
    "version": 1
  }
}